:020000040800F2
:1000000008060020D100000831130008491000083C
:1000100000000000000000000000000000000000E0
:100020000000000000000000000000003513000880
:100030000000000000000000331300083713000820
:10004000E3000008E3000008E3000008E300000804
:10005000E3000008E3000008E3000008E3000008F4
:10006000E3000008E3000008E3000008E3000008E4
:10007000E3000008E3000008E3000008E3000008D4
:10008000E3000008E300000800000000E3000008AF
:10009000E3000008E3000008E3000008E3000008B4
:1000A000E3000008E3000008E3000008E3000008A4
:1000B000E300000800000000E30000080348854654
:1000C00000F0EEF800480047711400080806002010
:1000D0000448804704480047FEE7FEE7FEE7FEE7E6
:1000E000FEE7FEE79D130008BD00000830B50B4693
:1000F000014600202022012409E00D46D5409D4202
:1001000005D31D469540491B254695404019154687
:10011000521E002DF1DC30BD70B5002425460028AC
:1001200001DA01244042002901DA01254942FFF7A2
:10013000DDFFAC4200D04042002C00D0494270BDEF
:10014000F0B51FB40646002082B005464024019158
:1001500000901BE0019922460F46304600F020F83F
:10016000049A059B801A994110D3104619462246DD
:1001700000F044F8361A8F410197224601200021F1
:10018000009F00F03BF838184D4100902046641E57
:100190000028DFDC019B00982946324607B0F0BDFD
:1001A00010B5202A04DB0846203AD040002110BDBB
:1001B0000B46D340D0402024A21A91400843194650
:1001C00010BDD2B201E00270401C491EFBD2704744
:1001D0000022F6E710B513460A4604461946FFF713
:1001E000F0FF204610BDC217C10F504010B5401897
:1001F000CA079623002100F019F810BD10B5202A77
:1002000004DB0146203A9140002010BD914020239C
:100210009C1A0346E3401943904010BD002904DABC
:10022000401C490001D140084000704770B40024D0
:10023000050C05D11024000402D1002921D011247D
:10024000050E01D100020834050F01D10001241D63
:10025000850F01D18000A41C002801DB4000641C34
:10026000002908D020252E1B0D46F540A14000D0C6
:1002700001212943084301061B1B000ADB1D02D58F
:10028000002070BC7047DB05181880180029F8DAC8
:10029000401C4900F5D170BC400840007047000088
:1002A000064C0125064E05E0E36807CC2B430C3CC9
:1002B00098471034B442F7D3FFF704FF70150008D5
:1002C0009015000870B5044600F0D4F80546601C8F
:1002D00002D004480078241800F0CCF8401BA0425B
:1002E000FAD370BD1C000020FCB500230124A1E05E
:1002F00027462A469F403A4073D04D68012D05D0CD
:10030000022D03D0112D01D0122D16D185680326A0
:10031000AC465D00AE46AE406546B543AC46CE68E1
:100320007546AE4065462E43866046680D79BE43ED
:10033000ED06ED0F9D4035434560C6685F0003251F
:10034000BD40AE46AE4335468E68BE402E43C660C5
:100350004E68022E01D0122E14D1DE08B6003618D7
:100360000196366A5D07B446EE0E0F25B54000963D
:100370006646AE43B4460D69009EB54066462E43C0
:10038000019D2E6206687546AE430D79AD07AD0F2F
:10039000BD40354305604D68ED004AD5284DAE6936
:1003A0002643AE61AD699E08ED07ED0F0095254D22
:1003B000B6007519AC46AD689E07360F0F27B740DB
:1003C000BD430927FF06B84201D1002710E01E4FA8
:1003D000B84201D101270BE01C4FB84202D10227DD
:1003E00006E026E01A4FB84201D1032700E00527B6
:1003F000B7402F436546AF60164E35684F6895434A
:10040000FF0300D51543356075684F689543BF03FA
:1004100000D515437560B5684F689543FF0200D558
:100420001543B560F5684F689543BF0200D5154385
:10043000F5605B1C0A681546DA4000D058E7FCBD41
:10044000001002400000014000040048000800487D
:10045000000C004800040140426913460B401B0495
:1004600091430B4383617047002A01D0816170473B
:100470008162704701488068704700001C000020BE
:1004800070B5024640325378202B1CD11378012BD3
:1004900019D00123137024245470046825689D43E7
:1004A0002560046825681E03B54325600468256837
:1004B0000D432560006801681943016020205070D9
:1004C0000020107070BD022070BD70B50246403231
:1004D0005378202B1BD11378012B18D001241470D2
:1004E0002423537003681D68A5431D6005682B68AD
:1004F0000F263602B34309021943296000680168D8
:1005000021430160202050700020107070BD022037
:1005100070BD000070B5040006D0254640356878EF
:100520000026002802D005E0012070BD2E70204674
:1005300000F0EAF924206870206801684908490041
:1005400001600F21606809068843216808612168FD
:100550008A680120C00382438A60E1680129A1689A
:1005600008D021229202114322689160E168022999
:1005700002D005E00143F7E701212268C90251607A
:1005800021684A680F4B1A434A602168CA6882434F
:10059000CA60616920690843A169090208432168AA
:1005A000C860216AE0690843216808602068016822
:1005B0000122114301606664202068702663AE70DA
:1005C000002070BD00800002FFB50446002083B00B
:1005D0002546403501906A78202A74D122689269B4
:1005E000D24312047BD52A78012A78D001222A70BE
:1005F00024226A7060648F05BF0DE06801280BD06B
:100600000520C0020121381889028843216848600A
:10061000FFF730FF06460CE03248F3E70698401C2F
:1006200007D0FFF727FF811B0698814219D80028C1
:1006300017D02168886989698006C00FC906C90F6B
:100640000843EBD020688069069BC043C006009633
:1006500017D500222021204600F054FD002830D17B
:1006600007E020206870616C0143616400202870FD
:1006700027E021682020C86168700020287007B03A
:10068000F0BD00222021204600F03CFD002818D1BA
:1006900021681020C86121682020C861019905984F
:1006A000814214D1206841680122920311434160C4
:1006B0000096002220212046069B00F023FD002802
:1006C00002D00120DBE70AE021682020C861019800
:1006D000401C01460190059881428ED3C1E702205B
:1006E000CDE7000000200002FFB505460446403576
:1006F000687881B0202878D12878012875D0012029
:100700002870FFF7B7FE0746012200901923D10396
:10071000204600F0F7FC00283CD122206870102011
:10072000A87000266664039860620498608566631A
:10073000618D2F48FF2903D9FF22228500903BE0DD
:10074000618D218500903DE02046029900F0C6FCB5
:1007500016E000F0FFFC00281CD12068406A616AA6
:100760000870606A401C6062208D401E81B2218545
:10077000608D401E6085608D002801D000290CD05E
:10078000608D0A9900283A462046E2D100F022FD09
:1007900000281CD0012005B0F0BD00970022802168
:1007A00020460A9B00F0AEFC0028F3D1608DFF28A4
:1007B00005D9FF222285009601231B06C4E7608D20
:1007C00020850096208D0123C2B25B06BCE721681C
:1007D0002020C86121684A68064B1A404A60687048
:1007E000AE702E700020D6E7FFE70220D3E70000AE
:1007F0000024008000E800FEFFB5054604464035B1
:10080000687881B0202878D12878012875D0012017
:100810002870FFF72FFE0746012200901923D1030D
:10082000204600F06FFC00283CD121206870102089
:10083000A870002666640398606204986085666309
:10084000618D2F48FF2903D9FF22228500903BE0CC
:10085000618D218500903DE02046029900F03EFC2C
:1008600016E000F0DDFC00281CD1606A21680078E9
:100870008862606A401C6062608D401E6085208DC9
:10088000401E80B22085618D002901D000280CD047
:10089000608D0A9900283A462046E2D100F09AFC81
:1008A00000281CD0012005B0F0BD00970022802157
:1008B00020460A9B00F026FC0028F3D1608DFF281B
:1008C00005D9FF222285009601231B06C4E7608D0F
:1008D00020850096208D0123C2B25B06BCE721680B
:1008E0002020C86121684A68064B1A404A60687037
:1008F000AE702E700020D6E7FFE70220D3E700009D
:100900000020008000E800FE10B586B004461421E7
:100910006846FFF75DFC1249206888421DD1114CE2
:1009200061690120800401436161616901400591B1
:10093000C020009012200121019003200291049117
:10094000039069460848FFF7CFFCE16901204005A4
:100950000143E161E1690140059106B010BD00006D
:100960000054004000100240000400480248816822
:1009700002788918816070471C00002010B5064875
:100980000168102211430160002000F007F800F018
:1009900027F8002010BD00000020024070B504467A
:1009A0000D4D7D202978C000FFF7A0FB01460B48C4
:1009B0000068FFF79BFB00F02FFB002809D1042CF7
:1009C00007D200222146401E00F01EF800206C6075
:1009D00070BD012070BD00001C0000202800002018
:1009E00008B508488169012211438161816911407C
:1009F0000091C26901040A43C261C06908400090C5
:100A000008BD00000010024010B500F0E1FC10BD70
:100A1000F8B505460068394CC00352D5E069002698
:100A2000C00007D4E16920040143E161E1690140AC
:100A30000126009132480168C90510D40168821569
:100A400011430160FFF716FD074604E0FFF712FDB2
:100A5000C01B642824D82A480068C005F6D5206A3F
:100A600003273F02384020D06968394081421CD0BA
:100A7000206A226AB843012109040A432262226AD9
:100A80008A4322622062C0070FD0FFF7F3FC009078
:100A900008E0FFF7EFFC0099411A1A48814201D99A
:100AA0000320F8BD206A8007F3D5206A6968B8433F
:100AB00008432062002E04D0E16901200007814331
:100AC000E1612878C00705D0206BA9688008800004
:100AD000084320632878800605D5206B10218843C1
:100AE000E968084320632888400505D5206B40212C
:100AF00088432969084320630020F8BD00100240A4
:100B00000070004088130000F8B50F46060059D069
:100B10003A4D2868C007C00FB84209D2286840087B
:100B20004000384328602868C007C00FB84249D148
:100B30003068334C81070CD5400704D56068072125
:100B40000902084360606068F0218843B168084387
:100B500060603078C00726D0706801280ED0216808
:100B600002280ED0890700292CDA616889088900DB
:100B700001436160FFF77EFC00900DE0216889036E
:100B8000F1E78901EFE7FFF775FC0099411A1D486D
:100B9000814201D90320F8BD60680C2108407168CA
:100BA00089008842EFD12868C007C00FB8420BD92E
:100BB000286840084000384328602868C007C00FF4
:100BC000B84201D00120F8BD3078400706D56068F2
:100BD000072109028843F1680843606000F018F8B3
:100BE0006168094A0906090F515CC8400749086055
:100BF0000020FFF7D3FE0020F8BD000000200240D7
:100C00000010024088130000601500082800002032
:100C100010B514A30FCB88B06C460FC415A30FCB2F
:100C20000FC4184A51680C200B4603401648042B89
:100C300016D0082B14D18B021B0F6C46E45CD26AD1
:100C400004AB1207120F9A5CC90305D5002319469D
:100C5000FFF776FA214601E020460C4900F09FFBA1
:100C600008B010BD02030405060708090A0B0C0DA5
:100C70000E0F10100102030405060708090A0B0CE9
:100C80000D0E0F100010024000127A0000093D0006
:100C9000FEB5040070D02078DC4DC0074AD06868EB
:100CA0000007800F012807D068680007800F02281E
:100CB00009D16868C00306D5286880033AD5606802
:100CC0000028E7D036E06168012914D001208004B3
:100CD000002901D0052914D02A68012109048A437A
:100CE0002A602968814329606068002816D0FFF7D0
:100CF000C1FB06460EE0286801210904084328606C
:100D0000F2E7296801432960F5E7FFF7B3FB801B91
:100D100064286ED828688003F7D50BE0FFF7AAFB9C
:100D2000064604E0FFF7A6FB801B6428F1D828687C
:100D30008003F7D420780126800700283CDA686811
:100D40000007800F07D068680007800F022809D1CC
:100D50006868C00306D42868800716D5E0680128B3
:100D60000AD112E0E0680028286816D030432860D5
:100D7000FFF780FB074605E043E1FFF77BFBC01B65
:100D80000228C6D828688007F7D52868F821884344
:100D90002169C900084328600EE04008400028602F
:100DA000FFF768FB074604E0FFF764FBC01B02285F
:100DB000AFD828688007F7D42078000722D5E069EB
:100DC0000028686A0ED030436862FFF753FB07467D
:100DD00004E0FFF74FFBC01B02289AD8686A80071F
:100DE000F7D50FE0400840006862FFF743FB074675
:100DF00005E09DE0FFF73EFBC01B022889D8686A2A
:100E00008007F7D4207804274007002860DA002004
:100E10000190E869C00008D4E969B8060143E961B6
:100E2000E969014001200091019079480168C905F4
:100E300011D40168821511430160FFF71BFB00907C
:100E400005E0FFF717FB0099401A642870D8704836
:100E50000068C005F5D5A06801280AD0002801D097
:100E6000052810D0286A400840002862286AB84344
:100E700001E0286A30432862A068002812D0FFF7FA
:100E8000F9FA00900AE0286A38432862F1E7FFF790
:100E9000F1FA0099411A5F48814249D8286A8007CF
:100EA000F5D50DE0FFF7E6FA009006E0FFF7E2FA6D
:100EB0000099411A574881423AD8286A8007F5D4E8
:100EC0000198002804D0E969012000078143E96105
:100ED0002078C00635D5606901280CD0401D686BAC
:100EE00023D038436863686B400840006863FFF7AD
:100EF000C1FA064622E0686B38436863686B30438A
:100F00006863FFF7B7FA064604E0FFF7B3FA801B01
:100F100002285BD8686B8007F7D5686BF821884397
:100F2000A169C900084368630BE0B8436863F4E74C
:100F30004CE0FFF79FFA801B022847D8686B8007B8
:100F4000F7D4206A00285ED069680907890F022952
:100F500042D0012636060228286805D0B043286012
:100F6000FFF788FA044633E0B0432860FFF782FABF
:100F7000074604E0FFF77EFAC01B022826D828683F
:100F80008001F7D4E86AE16A000900010843E862D9
:100F9000616AA06A084369683D22120491430843CC
:100FA0006860286830432860FFF764FA044604E06C
:100FB000FFF760FA001B022808D828688001F7D5DF
:100FC00021E0FFF757FA001B022801D90320FEBDDC
:100FD00028688001F5D416E00128F8D06868E96A2D
:100FE00001221204636A02409A420AD10907E26AA6
:100FF000090F914205D10F2189040840A16A884256
:1010000001D00120FEBD0020FEBD00000010024006
:101010000070004088130000094910B5401E884246
:1010200001D9012010BD074C60610321081F00F0A9
:10103000CFF90020A06107202061002010BD000032
:10104000FFFFFF0000E000E0FEE701688A69D2438D
:10105000920701D400228A6200688169C943C907E6
:1010600003D081690122114381617047F7B50446BD
:1010700000680E468069C043C0062BD42027254651
:10108000403520688069C043800612D5701CF8D0B6
:10109000FFF7F0F90299401AB04201D8002EF0D1C2
:1010A000606C384360646F700020A8702870012065
:1010B000FEBD21681020C8612068C7612046FFF787
:1010C000C4FF20684168044A11404160606C0421FB
:1010D0000843E7E70020FEBD00E800FEF0B5066823
:1010E000059C7568064F600D384385438805800D63
:1010F000110408431843204305437560F0BD000008
:10110000FF63FF03F8B51D4617460E46044609E087
:10111000681C07D0FFF7AEF90699401AA8420BD811
:10112000002D09D020688169304688430FD0002007
:10113000B842EDD00020F8BD616C2020014361640D
:10114000403460700020A07020700120F8BD0120A4
:10115000EEE70000F7B50027202605460446403597
:1011600028E02046029A0199FFF780FF002801D06D
:101170000120FEBD20688069C043800611D420682C
:101180008169C943490702D4218D002917D1C6615D
:10119000206841680E4A1140416067646E70AF700C
:1011A00013E0FFF767F90299411A0198814208D8C4
:1011B000002806D020688069C0434007D1D40020B1
:1011C000FEBD606C304360646E702F70D0E700002D
:1011D00000E800FE70B516460D4604460FE03246A4
:1011E00029462046FFF742FF002801D0012070BDAC
:1011F000FFF740F9801BA84208D8002D06D02068D0
:101200008069C0438006EAD4002070BD616C202054
:1012100001436164403460700020A0702070E5E7F5
:1012200070B516460D46044611E032462946204662
:10123000FFF71CFF002801D0012070BD681C06D0FC
:10124000FFF718F9801BA84208D8002D06D02068A7
:101250008069C0438007E8D4002070BD616C202005
:1012600001436164403460700020A0702070E3E7A7
:10127000F0B587B014216846FEF7AAFF1948426905
:10128000012149040A43426142690A4005924269C8
:1012900089000A43426142690A4005924269491045
:1012A0000A4342614069032608400F4F3602059009
:1012B000002231463846FFF7D7F80C4801250024B4
:1012C00001906946009502948002FFF70DF80294A0
:1012D00069463846009601950394FFF705F807B074
:1012E000F0BD00000010024000080048000012108D
:1012F00010B50D480B4901600C4941600021816027
:101300000161416181610122C161C2600162FFF737
:1013100001F900210448FFF7B3F800210248FFF764
:10132000D4F810BD005400402C0000200E0900200D
:1013300070477047704710B5FFF718FB10BD30B508
:1013400095B030216846FEF743FF00240C940D94BD
:101350000E94142110A80F94FEF73AFF0120039079
:10136000102009940225049005200095C0040A90DD
:1013700008950B946846FFF78BFC07200C900E94A1
:1013800001210D950F940CA8FFF7BEFB20201090B3
:10139000139410A8FFF73CFB15B030BD7047F8B5AB
:1013A000040C8BB2264682B25E430D0C1046370CFD
:1013B0005843360480190021794116466E43370C94
:1013C00036048019794126466E438919F8BD00001C
:1013D0008307FF22DB0E9A408907090E99400028F7
:1013E00008DB830809489B001B18186890430843D2
:1013F000186070470007000F0838830804489B00F6
:101400001B18D86990430843D861704700E400E096
:1014100000ED00E002E008C8121F08C1002AFAD15E
:1014200070477047002001E001C1121F002AFBD164
:10143000704700000B48C16902041143C1610A48AA
:10144000026904210A4302610848026802231A4320
:10145000026002680A4302604168821511434160DC
:1014600030BF70470010024000ED00E00070004007
:1014700008B5FFF783FAFFF762FFFFF7F9FEFFF702
:1014800037FF0A230222D0213248FFF79DF80028B7
:1014900004D1012149023048FEF7DEFF2F48002623
:1014A00006707F2141700A2702460223D021294875
:1014B0000097FFF7A1F9274864214C30FEF788FE1A
:1014C000264C61682069884226DA244D01232E705B
:1014D0002A46D0211F480097FFF78EF901236A1C86
:1014E000D0211C480097FFF7FFF8206919498300B5
:1014F0006A784C31CA50401C20610A20FEF7E2FE97
:101500006168206988421FD11248A66064214C306E
:10151000E660FEF75DFE17E00E4AA66135464C32E6
:10152000A06803E0AB00D35818186D1C8D42F9DB9E
:10153000A5616421A060FEF7EFFDFEF754FE266171
:10154000E0606069401C606160690A28B9D1FFF7FA
:1015500071FFB6E72C0000200008004800000020C2
:101560000000000000000000010203040607080953
:1015700090150008000000202C0000001414000842
:10158000BC1500082C000020DC0500002414000815
:1015900000000000640000000000000000000000E7
:1015A000000000000000000000000000010000003A
:0C15B000040000000000000000127A009F
:04000005080000BD32
:00000001FF
